:100000000C9434000C9446000C9446000C9446006A
:100010000C9446000C9446000C9446000C94460048
:100020000C9446000C9446000C9446000C94460038
:100030000C9446000C9446000C9446000C94460028
:100040000C9446000C9446000C9446000C94460018
:100050000C9446000C9446000C9446000C94460008
:100060000C9446000C94460011241FBECFEFD8E03C
:10007000DEBFCDBF21E0A0E0B1E001C01D92A630FF
:10008000B207E1F70E9474000C94F1000C94000098
:1000900081E085B9189903C0299880E0089580917E
:1000A00064008E7F8093640080917A00806C8093DE
:1000B0007A0080917A008670E1F7909179008091C2
:1000C0007A008F7780937A008091C00085FD03C00D
:1000D0009093C600F9CF9B3018F482E085B9DDCF4C
:1000E00088E285B981E008958EE384B980937E002B
:1000F00080E280937C001092C50089E08093C40068
:1001000088E18093C1008EE08093C2002FEF80E7EA
:1001100092E0215080409040E1F700C000000E9432
:1001200048008111F3CF8091C00087FD0BC02FEFF5
:1001300081EE94E0215080409040E1F700C0000043
:1001400015B8E4CF8091C60085B98091C00087FDC5
:1001500003C08091C600F9CF85B1082E000C990B21
:100160000E94BA008091C00085FDFCCF85B18093CC
:10017000C600CCCF60910201709103010E94C100C2
:1001800008950F931F93CF93DF93182F092FEB013F
:100190008B8181FD09C01FEF0FEF812F902FDF9121
:1001A000CF911F910F91089582FF14C02E813F813E
:1001B0008C819D81281739073CF4E881F981CF01B2
:1001C00001969983888310838E819F8101969F83F6
:1001D0008E83E3CFE885F985812F0995892BA1F3DB
:0601E000DACFF894FFCF16
:00000001FF
