:100000000C9434000C943E000C943E000C94400080
:100010000C943E000C943E000C943E000C943E0068
:100020000C943E000C943E000C943E000C943E0058
:100030000C943E000C943E000C943E000C943E0048
:100040000C943E000C943E000C9451000C943E0025
:100050000C943E000C943E000C943E000C943E0028
:100060000C943E000C943E0011241FBECFEFD8E04C
:10007000DEBFCDBF0E9471000C9491000C94000073
:100080001F920F920FB60F921124289A0000189B0E
:1000900006C0299A0F900FBE0F901F9018952998AF
:1000A000F9CF1F920F920FB60F9211248F93CF9317
:1000B000DF931F92CDB7DEB78091C6008F7B85B9E5
:1000C0008091C00087FF04C08091C6008983F8CF6B
:1000D0000F90DF91CF918F910F900FBE0F901F90D7
:1000E00018958EE384B91092C50087E68093C4000A
:1000F00088E18093C10086E08093C2008FB780685A
:100100008FBF8091680081608093680080916B0050
:10011000816080936B008091C10080688093C100F2
:06012000FFCFF894FFCFB1
:00000001FF
