:100000000C9434000C9446000C9446000C94480068
:100010000C9446000C9446000C9446000C94460048
:100020000C9446000C9446000C9446000C94460038
:100030000C9446000C9446000C9446000C94460028
:100040000C9446000C9446000C9467000C944600F7
:100050000C9446000C9446000C9446000C94460008
:100060000C9446000C94460011241FBECFEFD8E03C
:10007000DEBFCDBF21E0A0E0B1E001C01D92A13004
:10008000B207E1F70E9498000C94C7000C9400009E
:100090001F920F920FB60F9211248F93289A00008F
:1000A000189B12C0299A8FE6809300018091C000AE
:1000B00085FFFCCF809100018093C6008F910F9047
:1000C0000FBE0F901F901895299886E6EDCF1F92CE
:1000D0000F920FB60F9211248F93CF93DF931F923D
:1000E000CDB7DEB78091C600809300018F7B85B9C4
:1000F0008091C00087FF04C08091C6008983F8CF3B
:100100008091C00085FFFCCF809100018093C600E4
:100110008091C00085FFFCCF8AE08093C6000F90DD
:10012000DF91CF918F910F900FBE0F901F90189578
:100130008EE384B980917E008F6380937E008091EE
:100140007F00836080937F00809164008160809352
:1001500064001092C50087E68093C40088E1809314
:10016000C10086E08093C2008FB780688FBF809106
:10017000680081608093680080916B00816080934B
:100180006B008091C10080688093C100FFCFF8941C
:02019000FFCF9F
:00000001FF
