:100000000C9434000C943E000C943E000C943E0082
:100010000C943E000C943E000C943E000C943E0068
:100020000C943E000C943E000C943E000C943E0058
:100030000C943E000C943E000C943E000C943E0048
:100040000C943E000C943E000C943E000C943E0038
:100050000C943E000C943E000C943E000C943E0028
:100060000C943E000C943E0011241FBECFEFD8E04C
:10007000DEBFCDBF0E946E000C94B4000C94000053
:10008000289A189903C0299880E008958091640007
:100090008E7F809364008EEF80937E0080917A0043
:1000A000806C80937A0080917A008670E1F790915D
:1000B000790080917A008F7780937A008091C000D8
:1000C00085FD03C09093C600F9CF9B3018F482E001
:1000D00085B9DACF88E285B981E00895CF93DF93BF
:1000E0001F92CDB7DEB78EE384B98FE380937E0095
:1000F0008091640081608093640080E280937C0042
:100100001092C50087E68093C40088E18093C10007
:100110008EE08093C2002FEF89E698E12150804065
:100120009040E1F700C000000E9440008111F3CF31
:100130008091C00087FFEFCF8091C60085B9809184
:10014000C00087FF04C08091C6008983F8CF8091EA
:10015000C00085FFFCCF85B18093C6008091C000B0
:0C01600080648093C000D7CFF894FFCFDC
:00000001FF
