:100000000C9434000C9446000C9446000C9446006A
:100010000C9446000C9446000C9446000C94460048
:100020000C9446000C9446000C9446000C94460038
:100030000C9446000C9446000C9446000C94460028
:100040000C9446000C9446000C9446000C94460018
:100050000C9446000C9446000C9446000C94460008
:100060000C9446000C94460011241FBECFEFD8E03C
:10007000DEBFCDBF21E0A0E0B1E001C01D92A13004
:10008000B207E1F70E947C000C9498000C940000E9
:10009000289A0000189903C0299880E0089580915B
:1000A00064008E7F8093640080917C00807F8093C9
:1000B0007C0080917A00806C80937A0080917A0035
:1000C00086FDFCCF809179008093000180917A00B9
:1000D0008F7780937A008091C00080910001809397
:1000E000C6008091000181351CF482E085B9D5CF2E
:1000F00088E285B981E008958EE384B980E6809333
:100100007C001092C50087E68093C40088E180934C
:10011000C10086E08093C2000E9448008111FCCF9C
:100120008091C00087FFF8CF8091C00015B8F4CF50
:04013000F894FFCF71
:00000001FF
